:020000000125D8
:020003000159A1
:02000B0001678B
:02001300017377
:02001B0001746E
:10002300017575812F75A89775B812759850758DE0
:10003300E6758700758921D288D28A758C3C758ACA
:10004300B07B417C007D0A1198C20075A0FF117A34
:100053001183118F014E300006C200C28C0166D29B
:1000630000D28C32DD037D021C758C3C758AB03264
:100073003232AB99C298328C900CBC08027C0022BD
:100083007400936004F5A0A32211982278107910CC
:10009300D9FED8FA22BB410490014E22BB42049000
:1000A300015622BB430490015E22BB4404900166C7
:1000B30022BB450490016E22BB460490017622BB0D
:1000C300470490017E22BB480490018622BB490469
:1000D30090018E22BB4A0490019622BB4B049001EF
:1000E3009E22BB4C049001A622BB4D049001AE227C
:1000F300BB4E049001B622BB4F049001BE22BB50FD
:10010300049001C622BB51049001CE22BB5204903D
:1001130001D622BB53049001DE22BB54049001E6B6
:1001230022BB55049001EE22BB56049001F622BB7C
:1001330057049001FE22BB580490020622BB5904C7
:1001430090020E22BB5A0390021622FF81F6F6F6A6
:1001530081FF00FF80B6B6B6C9FF00FFC1BEBEBEB9
:10016300DDFF00FF80BEBEBEC1FF00FF80B6B6B696
:10017300BEFF00FF80B6B6B6BEFF00FFC1BEBEAE77
:10018300CDFF00FF80F7F7F780FF00FFBEBE80BE04
:10019300BEFF00FFBFBEBEBEC0FF00FF80F7EBDDAA
:1001A300BEFF00FF80BFBFBFBFFF00FF80F9F7F9AD
:1001B30080FF00FF80F9F7CF80FF00FFC1BEBEBE06
:1001C300C1FF00FF80F6F6F6F9FF00FFC1BEBE9E39
:1001D30081FF00FF80F6F6F689FF00FFD1B6B6B6C1
:1001E300CDFF00FFFEFE80FEFEFF00FFC0BFBFBFCE
:1001F300C0FF00FFF0CFBFCFF0FF00FFE09FE79FFE
:10020300E0FF00FF9CEBF7EB9CFF00FFF8F78FF795
:0B021300F8FF00FF9EAEB6BABCFF0073
:00000001FF
